:100000000C942A000C943F000C943F000C943F0089
:100010000C943F000C943F000C943F000C943F0064
:100020000C943F000C943F000C943F000C943F0054
:100030000C943F000C943F000C943F000C943F0044
:100040000C943F000C943F000C943F000C943F0034
:100050000C943F0011241FBECFE5D8E0DEBFCDBF1A
:1000600010E0A0E6B0E0E2E9F1E002C005900D92F8
:10007000AA36B107D9F70E9441000C94C7000C942E
:1000800000008FEF84BB8ABB87B3876087BBC0E06B
:100090002EE130E029C0C9016AE070E00E949F00B3
:1000A000FB01E05AFF4F40814BBBFC01E05AFF4F80
:1000B000808185BBC0FD07C088B3816088BB88B3E1
:1000C000897F88BB06C088B3846088BB88B38C7F77
:1000D00088BB4FEF89E698E1415080409040E1F7BE
:1000E00000C00000215031093323ACF62AE030E093
:1000F00022C0C0FD22C0C9016AE070E00E949F00DA
:10010000FB01E05AFF4F40814BBBFC01E05AFF4F1F
:10011000808185BB88B3826088BB88B38A7F88BBB7
:100120004FEF89E698E1415080409040E1F700C0F0
:100130000000215031093323E4F6CF5FA9CF97FBAC
:10014000072E16F4009407D077FD09D00E94B30063
:1001500007FC05D03EF4909581959F4F08957095CA
:1001600061957F4F0895AA1BBB1B51E107C0AA1FD1
:10017000BB1FA617B70710F0A61BB70B881F991F48
:100180005A95A9F780959095BC01CD010895F894F2
:02019000FFCF9F
:0A0192003F065B4F666D7D077F6F2F
:00000001FF
